:020000040800F2
:10000000F80A0020010100085B180008CB14000862
:10001000591800086D010008B51F00080000000015
:100020000000000000000000000000003D1A000871
:100030006F010008000000007D1800083F1A00084A
:100040001B0100081B0100081B0100081B01000820
:100050001B0100081B0100081B0100081B01000810
:100060001B0100081B0100081B0100081B01000800
:100070001B0100081B0100081B0100081B010008F0
:100080001B0100081B0100081B0100081B010008E0
:100090001B0100081B0100081B0100081B010008D0
:1000A0001B0100081B0100081B0100081B010008C0
:1000B0001B0100081B0100081B0100081B010008B0
:1000C0001B0100081B0100081B0100081B010008A0
:1000D0001B010008951F00081B0100081B010008F8
:1000E0001B0100081B0100081B010008DFF80CD0F1
:1000F00000F02AF80048004725200008F80A0020F0
:100100000648804706480047FEE7FEE7FEE7FEE7B1
:10011000FEE7FEE7FEE7FEE7FEE7FEE7851A0008DA
:10012000ED000008D2B201E000F8012B491EFBD21D
:1001300070470022F6E710B513460A4604461946F2
:10014000FFF7F0FF204610BD064C074D06E0E068C3
:1001500040F0010394E8070098471034AC42F6D30E
:10016000FFF7C8FFF422000814230008FEE77047D9
:1001700010B590F821100024022903D004218163D6
:1001800001243DE001680A6822F00E020A6001685D
:100190000A6822F001020A601A4A0168914201D1FC
:1001A000012121E0174A1432914201D110211BE0B4
:1001B000144A2832914201D1891515E0114A3C3286
:1001C000914201D189140FE00E4A5032914202D17E
:1001D0004FF4803108E00B4A6432914202D14FF46F
:1001E000801101E04FF08071064A083A5160012108
:1001F00080F82110002180F82010416B01B1884760
:10020000204610BD080002402DE9F84FDFF890A10C
:1002100000220AF1040B144601274FF00F090BF1DD
:10022000040E00BF0B6807FA04F52B40AB4274D1F3
:10023000DFF870C14E68A6EB0C0866452BD00DDCCC
:10024000032E34D005DC36B3012E19D0022E2FD167
:100250001BE0112E16D0122E2AD119E0B8F5881FF6
:1002600019D006DCB8F5803F15D0B8F5801F1FD136
:1002700011E0B8F5001F0ED0B8F5041F18D10AE040
:10028000CA6815E0CA68121D12E0CA6808320FE099
:10029000CA680C320CE08A682AB1012A4FF00802C1
:1002A00003D0456104E0042202E0056100E0002281
:1002B000FF2B01D8064601E000F104064FEA840551
:1002C00001D9A5F12005D6F800C009FA05F82CEAF5
:1002D000080C02FA05F54CEA050CC6F800C04D689A
:1002E000ED0057D5304DAE6946F00106AE61AD69FF
:1002F00024F0030605F0010500952C4D06EB050CD6
:10030000DCF80850A6074FEA167809FA08F6B54354
:10031000274EB04202D1002610E03BE0254EB0420D
:1003200001D101260AE0244EB04201D1022605E0A7
:10033000224EB04201D1032600E0042606FA08F658
:100340002E43CCF808604D68DAF80060ED0355469E
:1003500001D51E4300E09E432E604D68DBF800602F
:10036000AD035D4601D51E4300E09E432E604D68FF
:10037000DEF80060ED02754601D51E4300E09E43A5
:100380002E604D68AD020E4D2E6801D51E4300E073
:100390009E432E60641C102CFFF444AFBDE8F88F20
:1003A0000004014000001110001002400000014054
:1003B00000080140000C0140001001400014014001
:1003C0000C0401400AB1016170470904FBE7000019
:1003D00001488068704700000800002070B50400E4
:1003E0001BD094F83D00002520B984F83C502046ED
:1003F00000F0E0F9242084F83D002068016821F035
:100400000101016000F05AFB404A6168914201D845
:100410003F4900E03F49884201D2012070BD3E497A
:100420002368B0FBF1F159606368934206D94FF439
:10043000967359434FF47A73B1FBF3F12368491C67
:1004400019626168914210D84900401EB0FBF1F278
:10045000521CC2F30B02042A01D2042022E0B0FB9A
:10046000F1F0401CC0F30B001CE0A368CBB301EB20
:10047000C10202EB0116421EB2FBF6F2521C42F41C
:100480008042120536D06BB301EBC10202EB0111C1
:10049000401EB0FBF1F0401CC0F30B0040F4804064
:1004A00040F400402168C861D4E90701084321688D
:1004B0000860D4E90310084321688860D4E9050185
:1004C00008432168C8602068016841F001010160AB
:1004D0002564202084F83D00256384F83E500020E8
:1004E00070BD00E008E001EB4106421EB2FBF6F2EF
:1004F000521CC6E70120D5E701EB4101401EB0FBCD
:10050000F1F0401CC0F30B00CAE70000A086010018
:1005100080841E0000093D0040420F002DE9FF4F7E
:1005200081B099468B4604464FF00108FFF750FF13
:10053000054694F83D0020287BD1192301224D491E
:100540002046009501F047F8002872D194F83C004D
:1005500001286ED0012084F83C0020680168C9079A
:1005600003D1016841F0010101602068016821F4B4
:1005700000610160242084F83D00002626643E4886
:10058000E06220272068016841F4807101604B46D9
:1005900000224FF001112046009501F01CF80028C0
:1005A00058D121680BF0FE000861FFF711FF2168A8
:1005B000054648694969C0F3400094F83D20C1F3FD
:1005C00080214FF0A00A12E0B9F1000F04D0FFF72C
:1005D000FFFE411B494501D984F83DA021684869C7
:1005E0004969C0F3400094F83D20C1F380210843DD
:1005F00001D1A02AE8D184F83D7020684169C9433F
:10060000890717D4016841F40071016020684169CD
:1006100080691923012217492046009500F0DBFF6D
:10062000C0B984F83D7084F83C60002005B0BDE896
:10063000F08F1DE0016841F40071016021686FF4E2
:1006400080604861192301220A492046009500F084
:10065000C2FF08B10320E9E74146039808F1010809
:1006600081428FD384F83D7084F83C600120DDE73F
:100670000220DBE7020010000000FFFF2DE9F84F29
:100680001F4690468A460446DDF82890FFF7A0FEF4
:10069000064694F83D0020287ED1192301224349C3
:1006A0002046009600F097FF00287DD194F83C008A
:1006B000012879D0012084F83C0020680168C9072E
:1006C00003D1016841F0010101602068016821F453
:1006D00000610160212084F83D00102084F83E0074
:1006E00000252564C4F8248067853148E062608D68
:1006F000208533464A465146204600F0FBFE28B18D
:10070000206C84F83C5004284CD00DE020684169EE
:100710008069009030E032464946204600F0D0FF24
:1007200028B1206C042838D00320BDE8F88F606A17
:10073000411C6162216800780861608D401E6085FF
:10074000208D401E80B2208521684A69D24352071D
:100750000BD450B1606A421C626200780861608DFF
:10076000401E6085208D401E208532464946204629
:1007700000F00AFF0028D4D1208D0028CBD154F8F6
:100780003D0B016841F400710160202004F81E094E
:10079000E57765770020C8E706E02068016841F446
:1007A000007101600120C0E70220BEE702001000D6
:1007B0000000FFFF10B586B0002100910191029169
:1007C000039100681349884222D1134CA06940F07C
:1007D0000800A061A069694600F0080004904FF489
:1007E0004070009012200190032003900B48FFF707
:1007F0000BFD0B48416841F0E06141F002014160AE
:10080000E06940F40010E061E06900F40010049039
:1008100006B010BD0054004000100240000C014022
:1008200000000140024881680278114481607047ED
:1008300008000020074810B5016841F01001016070
:10084000032000F073F8002000F006F800F024F810
:10085000002010BD0020024070B50D4D04464FF43D
:100860007A712878B1FBF0F00A490968B1FBF0F021
:1008700000F0FCFA48B9102C07D200222146501E85
:1008800000F034F800206C6070BD012070BD0000E5
:1008900008000020140000200C4808B5816941F0D0
:1008A00001018161816901F001010091C16941F09B
:1008B0008051C161C06900F08050009004484168D7
:1008C00021F0E06141F08061416008BD001002400C
:1008D0000000014000F01F0201219140400980000A
:1008E00000F1E020C0F8001170470000F0B40E4B9A
:1008F0001B680C46C3F30223C3F10705042D00D97E
:100900000425191D072901D2002300E0DB1E012662
:1009100006FA05F1491E214099409E40761E164078
:100920003143F0BC00F09ABF0CED00E0064900F046
:10093000070208684FF6FF03184040EA0220034A06
:1009400010430860704700000CED00E00000FA055D
:100950002DE9F047DFF8548105460E46D8F800002F
:1009600000F00700B0420CD2D8F8001021F00701C7
:100970003143C8F80010D8F8000000F00700B0427A
:100980006FD128684A4C810712D5400703D56068AB
:1009900040F4E06060602878000703D5606840F4A8
:1009A000605060606068A96820F0F00008436060F3
:1009B0002878C00744D06868012816D0216802282A
:1009C00016D0890700294CDA616821F00301014340
:1009D0006160FFF7FDFC6968074641F28830012934
:1009E0000ED00229814618D026E021688903E9E764
:1009F0008901E7E7FFF7ECFCC11B494501D918E085
:100A000081466068C0F381000128F3D118E000BF7F
:100A1000FFF7DEFCC11B49450BD86068C0F38100BD
:100A20000228F5D10CE000BFFFF7D2FCC11B4945FD
:100A300002D90320BDE8F087606810F00C0FF3D1F5
:100A4000D8F80010404601F00701B1420BD9016807
:100A500021F0070131430160006800F00700B04257
:100A600001D00120E6E72878400705D56068E968ED
:100A700020F4E060084360602878000706D56068CD
:100A8000296920F4605040EAC100606000F036F847
:100A90006168084AC1F30311515CC8400649086007
:100AA0000020FFF7D9FE0020C4E70000002002402C
:100AB00000100240DC220008140000200448054910
:100AC00000684968044AC1F30221515CC84070477C
:100AD0001400002000100240EC22000804480549E0
:100AE00000684968044AC1F3C221515CC84070479C
:100AF0001400002000100240EC22000812A185B072
:100B00000FC98DE80F0014A0144A006804905168C2
:100B1000134801F00C03042B10D0082B0ED1C1F3A5
:100B20008343C9031DF803000AD5516804AAC1F321
:100B30004041515C0A4A5043B0FBF1F005B07047A8
:100B400008494843FAE700000203040506070809BC
:100B50000A0B0C0D0E0F10100102000000100240D5
:100B600000127A0000093D002DE9F84F0446007894
:100B7000B94DC00748D06868C0F38100012807D08C
:100B80006868C0F38100022809D16868C00306D5EF
:100B90002868800338D5606800286FD034E060682A
:100BA000B0F5803F0BD010B1B0F5A02F11D0286860
:100BB00020F480302860286820F4802002E0286833
:100BC00040F480302860606888B1FFF701FC064679
:100BD00009E0286840F480202860F0E7FFF7F8FB80
:100BE000801B642875D828688003F7D50CE0FFF7D0
:100BF000EFFB064605E000BFFFF7EAFB801B642819
:100C0000F0D828688003F7D42078944E80074FF0FE
:100C100001094FF000083BD5686810F00C0F07D0B1
:100C20006868C0F38100022809D16868C00306D44F
:100C30002868800714D5206901281FD110E0206999
:100C4000B0B1C6F80090FFF7C3FB074605E000BF50
:100C5000FFF7BEFBC01B0228C4D828688007F7D561
:100C60002868616920F0F80040EAC10028600FE0C0
:100C7000C6F80080FFF7ACFB074606E0E9E000BFDE
:100C8000FFF7A6FBC01B022823D828688007F7D4EB
:100C9000207800072CD57248A169D9B1C0F800901E
:100CA000FFF796FB074604E0FFF792FBC01B022804
:100CB0000FD8686A8007F7D56A484FF4FA51006880
:100CC000B0FBF1F0009000BF0098411E0091FAD2F5
:100CD0000EE080E0C0F80080FFF77AFB074604E0F2
:100CE000FFF776FBC01B022875D8686A8007F7D427
:100CF0002078400760D5E8690027C00008D4E8697B
:100D000040F08050E861E869012700F080500090D1
:100D100055480168C90513D40168834641F48071C0
:100D20000160FFF755FB824606E000BFFFF750FB6E
:100D3000A0EB0A0064284ED8DBF80000C005F5D50A
:100D4000E06801280AD008B1052813D0286A20F0ED
:100D500001002862286A20F0040002E0286A40F0BE
:100D600001002862E06841F2883B98B1FFF730FB50
:100D700082460BE0286A40F004002862EEE700BFDC
:100D8000FFF726FBA0EB0A0159455AD8286A8007CD
:100D9000F6D50CE0FFF71CFB824605E0FFF718FBD9
:100DA000A0EB0A0159454CD8286A8007F6D41FB138
:100DB000E86920F08050E861E06988B36968C1F3B0
:100DC0008101022945D00228C6F8608004D0FFF7CF
:100DD000FFFA044638E034E0FFF7FAFA074604E089
:100DE000FFF7F6FAC01B02282BD828688001F7D439
:100DF000206AB0F5803F05D16868A16820F4003012
:100E000008436860D4E908010843696821F4741153
:100E100008436860C6F86090FFF7DAFA044606E017
:100E200015E000BFFFF7D4FA001B022809D8286894
:100E30008001F7D50BE000BFFFF7CAFA001B0228BC
:100E400002D90320BDE8F88F28688001F4D400207F
:100E5000F8E70120F6E700000010024000004242DF
:100E600080044242140000200070004010B5401E73
:100E7000B0F1807F01D3012010BD4FF0E02460610C
:100E80000F21601700F0EAFC0020A061072020611C
:100E9000002010BD10B590F83C20012A25D0012279
:100EA00080F83C20CA688C6822F4407222434C6867
:100EB00022F4806222430C6822F4006222430C690F
:100EC00022F4805222434C6922F4005222438C695E
:100ED00022F48042224322F400410268002321438D
:100EE000516480F83C30002010BD022010BD30B5A8
:100EF00090F83C20012A20D0012280F83C200223D7
:100F000080F83D3003685C6824F070045C6003681E
:100F10005C680D682C435C6003689C6824F0800466
:100F20009C6003689C6849680C439C6080F83D2085
:100F3000002180F83C10084630BD022030BD10B5BD
:100F4000040003D094F83D0010B107E0012010BD6B
:100F5000002084F83C00204600F00CF8022084F8C1
:100F60003D00211D206800F0B1FD012084F83D0006
:100F7000002010BD08B500680649884208D106481F
:100F8000816941F400618161806900F40060009032
:100F900008BD0000002C01400010024070B504465E
:100FA00090F83C00012817D0012584F83C5002201D
:100FB00084F83D002068826822F0770222F47F42A4
:100FC00082600868502837D00DDC202859D005DC15
:100FD00088B3102841D151E0022070BD302853D091
:100FE00040283AD13FE060282ED070280BD0B0F5D1
:100FF000805F03D0B0F5005F2FD110E020688168DA
:1010000021F0070115E0CB68D1E90121206800F04B
:101010009EFD2168886840F0770088601DE0CB68FD
:10102000D1E90121206800F092FD2068816841F437
:101030008041816011E01EE0CA684968206800F0C4
:101040003BFE5021206806E0CA684968206800F02D
:1010500044FE6021206800F084FD84F83D500020AB
:1010600084F83C0070BDCA684968206800F024FE1E
:1010700040212068EFE700212068ECE7102120687C
:10108000E9E720212068E6E730212068E3E7000057
:1010900000B585B000210091019102910391006893
:1010A0000B49884212D10B48816941F004018161EA
:1010B0008069694600F0040004904FF4407000908D
:1010C0000220019003900448FFF79EF805B000BD90
:1010D000002C0140001002400008014070B5044699
:1010E00090F83C0001280DD0012584F83C500220E6
:1010F00084F83D0042B1042A0AD0082A0CD00C2AF8
:1011000011D10DE0022070BD206800F033FD0AE02F
:10111000206800F057FD06E0206800F07FFD02E047
:10112000206800F0A7FD84F83D50002084F83C00C2
:1011300070BD10B5040003D094F83D0010B107E075
:10114000012010BD002084F83C00204600F00CF87F
:10115000022084F83D00211D206800F0B7FC01202A
:1011600084F83D00002010BD704770B5044690F82B
:101170003C000D4601280DD0012684F83C60022079
:1011800084F83D0042B1042A18D0082A2AD00C2A3B
:101190004DD139E0022070BD206800F0EBFC2068E2
:1011A000816941F0080181612068816921F00401B1
:1011B0008161206881692A69114311E0206800F08B
:1011C00001FD2068816941F40061816120688169C5
:1011D00021F480618161206881692A6941EA0221E4
:1011E000816124E0206800F019FD2068C16941F0A8
:1011F0000801C1612068C16921F00401C161206852
:10120000C1692A69114311E0206800F033FD2068AC
:10121000C16941F40061C1612068C16921F4806144
:10122000C1612068C1692A6941EA0221C16184F86B
:101230003D60002084F83C0070BD000010B50446FD
:101240000068012200F078FC07492068884203D139
:10125000416C41F4004141642068016841F00101A2
:101260000160002010BD0000002C0140704700000C
:1012700070B5026804461068D168536910F00F0F0A
:1012800050D003F0010501F4907635435DD0C207DC
:1012900005D0CA0503D5E26B42F00102E2634207C2
:1012A00005D5DA0703D0E26B42F00202E26382075F
:1012B00005D5DA0703D0E26B42F00402E2630207CD
:1012C00005D5DA0703D0E26B42F00802E263E26B75
:1012D000002A33D0800604D5880602D5204600F0C7
:1012E00024FD20684069E16BC0F38010090700D439
:1012F00028B3204600F00BFD2068416949061AD545
:10130000416921F040014161606BA0B11B4941631B
:10131000606BFEF72DFF002810D0606B416BBDE8BD
:1013200070400847830610D58B060ED52046BDE8D1
:10133000704000F0FABC2046FFF798FF70BD2046D1
:10134000FFF794FF0020E06370BD030606D50B068F
:1013500004D52046BDE8704000F0EABD4006F3D554
:101360004806F1D5D168204621F04001D160202106
:1013700084F8391000F0A8F870BD0000FF1C0008C8
:1013800070B5040004D094F83900002510B106E0CF
:10139000012070BD84F83850204600F023F8242046
:1013A00084F839002068C16821F40051C1602046EA
:1013B00000F006FD2068016921F490410161206878
:1013C000416921F02A0141612068C16841F400515E
:1013D000C160E563202084F8390084F83A000020D9
:1013E00070BD000030B585B00024009401940294D3
:1013F000039400681B49884232D11B48816941F43B
:1014000080418161816901F480410491816941F0E9
:10141000080181618069154D00F0080004904020AA
:101420000090022001900320039069462846FEF7B1
:10143000EBFE8020CDE90004694628460294FEF7C1
:10144000E3FE0B48416841F0E06141F00401416076
:10145000002211462520FFF749FA2520FFF73AFA26
:1014600005B030BD0038014000100240000C0140C2
:101470000000014090F83A30202B22D1F9B1F2B1AE
:1014800090F83830012B1CD081628285C285002102
:10149000C163222280F83A2080F838100168CA68B7
:1014A00042F48072CA6001684A6942F001024A61EE
:1014B0000068C16841F02001C16000207047012030
:1014C00070470220704770477047FEE701684A691D
:1014D000D24352050CD46FF480624A610421016446
:1014E000002140F8301F2022427301730120704711
:1014F00000207047F8B50446C06A1E460D461746E0
:10150000042807D0012805D010F5803F02D0206BB9
:10151000122804D12068016841F4807101601346EB
:1015200000224FF001112046009600F054F8A0B9B7
:101530002069B0F5804F12D00620216800EAD5104E
:1015400040F0F000086133463A460E49204600F06C
:1015500073F838B1206C042811D00320F8BD05F0D1
:10156000FE0000E0E8B221680861064933463A46C9
:10157000891F204600F060F80028EBD1F8BD01205B
:10158000F8BD00000800010070B516460D4604467F
:101590001AE02046FFF79AFF08B1012070BD681CD1
:1015A00012D025B1FEF714FF801BA8420CD954F8C5
:1015B000400F40F0200044F8100900202060202156
:1015C00061732073032070BD20684069C0434007E9
:1015D000DFD4002070BD2DE9F0471E4690460D4631
:1015E0000446C1F30747DDF8209012E0701C10D0CC
:1015F0002EB1FEF7EDFEA0EB0900B04209D90020A4
:1016000044F8300F20216173A07320730320BDE8DC
:10161000F0872068012F0AD0806925EA00000004C5
:10162000000C06D000214145E0D00020EFE74069E2
:10163000F3E70121F7E700002DE9F0479A469146CC
:101640000D46044600264FF02008C1F307472AE064
:1016500020684069C043400512D42068016841F405
:101660000071016021686FF480604861042020648B
:10167000266384F83D8084F83C600120BDE8F08753
:10168000B9F1FF3F0FD0B9F1000F05D0FEF7A0FE72
:10169000A0EB0A01494506D944F8306F84F80D8063
:1016A00026730320EAE72068012F07D0D0F818003E
:1016B00025EA00000004000CE0D0C9E74069F7E724
:1016C00070B516460D4604461AE02046FFF7FEFEAA
:1016D00008B1012070BD681C12D025B1FEF778FE5C
:1016E000801BA8420CD954F8400F40F0200044F869
:1016F000100900202060202161732073032070BD39
:1017000020684069C0430006DFD4002070BD00009F
:101710002DE9F04385B000242148009401940294FF
:101720000394816941F010018161816901F0100128
:101730000491816941F008018161816901F008012A
:101740000491816941F0040181618069DFF854806E
:1017500000F004004FF46045049000222946404602
:10176000FEF730FEDFF840904FF440470022394644
:101770004846FEF727FE0095022601250396CDE98F
:10178000015469464046FEF73FFD00970396CDE9B8
:10179000015469464846FEF737FD05B0BDE8F083C1
:1017A0000010024000100140000C014010B594B040
:1017B00000240E940F941094119412941C216846E6
:1017C0001394FEF7B6FC1C2107A8FEF7B2FC2148D3
:1017D0001F4901601821C0E90114FF21C0E9031469
:1017E00044618461FFF7ABFB4FF480500E900EA96B
:1017F0001848FFF7D3FB1748FFF79BFC129412A978
:1018000014481394FFF773FB00940194029403941B
:1018100004940594002269460E480694FFF75EFC86
:10182000042269460B48FFF759FC07940894099471
:101830004FF400500A94CDE90B4007A905480D94D8
:10184000FFF728FB0348FFF723FC14B010BD00008E
:10185000002C014074040020FEE770470907090EC0
:10186000002806DA00F00F0000F1E02080F8141DD7
:10187000704700F1E02080F80014704770470000C6
:1018800028B1FF224FF480610248FEF74BBC0022D2
:10189000F8E700002000002010B500F0E5FC44F659
:1018A0002063012278215148FEF738FE08B100205C
:1018B00010BD40F6C210401EFDD1AE22002178209E
:1018C00000F0D8FC20220021782000F0D3FC102268
:1018D0000021782000F0CEFCB0220021782000F01A
:1018E000C9FCC8220021782000F0C4FC0022114667
:1018F000782000F0BFFC10220021782000F0BAFC14
:1019000040220021782000F0B5FC812200217820BF
:1019100000F0B0FCFF220021782000F0ABFCA122F7
:101920000021782000F0A6FCA6220021782000F0FB
:10193000A1FCA8220021782000F09CFC3F2200217D
:10194000782000F097FCA4220021782000F092FC7F
:10195000D3220021782000F08DFC0022114678204F
:1019600000F088FCD5220021782000F083FCF022D2
:101970000021782000F07EFCD9220021782000F0A0
:1019800079FC22220021782000F074FCDA22002168
:10199000782000F06FFC12220021782000F06AFC11
:1019A000DB220021782000F065FC20220021782035
:1019B00000F060FC8D220021782000F05BFC1422F6
:1019C0000021782000F056FCAF220021782000F0A2
:1019D00051FC0020FFF754FF00F00CF804480021F0
:1019E0000180418001214171084610BD2004002082
:1019F0000000002070B5104D002400BF04F1B000BD
:101A0000C2B20021782000F035FC00221146782077
:101A100000F030FC10220021782000F02BFC05EBB8
:101A2000C41280234021782000F034FC641CE4B20E
:101A3000082CE3D370BD0000200000207047FEF7A3
:101A4000F1BE10B590B028216846FEF772FB142154
:101A50000AA8FEF76EFB02200090012004901020DF
:101A60000024059007946846FFF77EF80F20CDE923
:101A70000A040C940D9400210AA80E94FEF768FF46
:101A800010B010BD0D48016841F0010101604168CE
:101A90000B4A1140416001680A4A11400160016827
:101AA00021F480210160416821F4FE0141604FF47E
:101AB0001F0181600449C0030860704700100240A4
:101AC0000000FFF8FFFFF6FE08ED00E0F0B5026849
:101AD000164B174C174D4FF08047984205D0B8422F
:101AE00003D0A04201D0A84203D122F070064A6878
:101AF0003243984205D0B84203D0A04201D0A84258
:101B000003D122F44074CA68224322F080044A6957
:101B1000224302608A68C2620A688262984201D1E6
:101B20000969016301214161F0BD0000002C014001
:101B3000000400400008004010B50123046A8B40F7
:101B40009C430462036A8A401343036210BD10B5CC
:101B5000846842EA032224F47F440A4322438260D9
:101B600010BD826822F070020A4342F007018160D2
:101B70007047000030B5026A22F001020262026A78
:101B80004368846924F073050C682C4322F0020535
:101B90008A682A430A4DA8420BD122F00805CA6878
:101BA00023F440732A434D6922F004021D438B69DC
:101BB0002B434360846149684163026230BD000089
:101BC000002C014030B5026A22F010020262026A63
:101BD000436884690D6824F4E64444EA05248D686A
:101BE00022F0200242EA05120B4DA8420ED1CD6828
:101BF00022F0800242EA05124D6923F4406343EA71
:101C000085038D6922F0400243EA850343608461C5
:101C100049688163026230BD002C014030B5026A20
:101C200022F480720262036A4268C46923F400737A
:101C300024F073050C682C438D6843EA05230C4D92
:101C4000A8420ED1CD6823F4006343EA05234D6911
:101C500022F4405242EA05128D6923F4806342EA7D
:101C600005124260C4614968C163036230BD00006F
:101C7000002C014030B5026A22F480520262046AEC
:101C80004268C3690D6823F4E64343EA05238D687F
:101C900024F4005444EA0534064DA84204D14D69A9
:101CA00022F4804242EA85124260C36149680164BD
:101CB000046230BD002C014010B5036A046A24F0B0
:101CC00001040462846924F0F00444EA021423F05D
:101CD0000A020A438461026210BD10B5036A23F050
:101CE000100303628369046A23F4704343EA0232F7
:101CF00024F0A00343EA01118261016210BD10B516
:101D0000406A0021C185C184FFF7B0FA10BD0168A7
:101D1000CA6822F49072CA6001684A6922F001021E
:101D20004A61202180F83A10704710B590F83A10B7
:101D3000222901D0022010BD8168B1F5805F11D049
:101D40000169002901681FD0496801F07F03816A99
:101D50004A1C82620B70C18D491E0904090CC185A1
:101D600018D02BE00269816A002A0268526805D007
:101D7000D2B20A80816A491C8162ECE7C2F3080290
:101D80000A80816A891CF7E74A68816A4B1C836272
:101D90000A70E0E70168CA6822F02002CA600168A0
:101DA000CA6822F48072CA6001684A6922F001029E
:101DB0004A61202180F83A10FFF785FB002010BD12
:101DC0002DE9F041044600680169E26821F44051C0
:101DD000114301612169A0680843616908432168D2
:101DE000CA6841F20C639A430243CA6020684169A1
:101DF000A26921F44071114341614C492068642576
:101E0000322688423CD1FEF769FE00EBC00101EBAF
:101E1000001061688900B0FBF1F7FEF75FFE00EB90
:101E2000C00101EB00106168B0468900B0FBF1F021
:101E3000B0FBF5F06FF01801484307EB800106EBAB
:101E40000110B0FBF5F000F0F006FEF747FE00EBE6
:101E5000C00101EB001061688900B0FBF1F0B0FB3C
:101E6000F5F006EB0016FEF739FE00EBC00101EBC2
:101E7000001061688900B0FBF1F7FEF72FFE3BE030
:101E8000FEF71CFE00EBC00101EB00106168890049
:101E9000B0FBF1F7FEF712FE00EBC00101EB001002
:101EA0006168B0468900B0FBF1F0B0FBF5F06FF06F
:101EB0001801484307EB800106EB0110B0FBF5F079
:101EC00000F0F006FEF7FAFD00EBC00101EB001098
:101ED00061688900B0FBF1F0B0FBF5F006EB00168D
:101EE000FEF7ECFD00EBC00101EB0010616889001A
:101EF000B0FBF1F7FEF7E2FD00EBC00101EB0010D3
:101F000061688900B0FBF1F0B0FBF5F06FF01801EB
:101F1000484307EB800108EB0110B0FBF5F02168A6
:101F200000F00F0030448860BDE8F08100380140C7
:101F300090F83910212901D0022070478168B1F54D
:101F4000805F016A0BD04A1C026202680978516006
:101F5000C18C491E0904090CC1840ED017E0098800
:101F60000268C1F30801516001690029016A02D0C9
:101F7000491C0162ECE7891CFBE70168CA6822F092
:101F80008002CA600068C16841F04001C160002061
:101F90007047000010B50548FFF76AF9BDE810402A
:101FA000012203490148FFF765BA0000B40400208C
:101FB00006000020FEE702E008C8121F08C1002A40
:101FC000FAD170477047002001E001C1121F002ABA
:101FD000FBD1704710B5002821D0114B0022001F03
:101FE000196803E0814203D80A4649680029F9D1FB
:101FF00052B11368841A9C4204D1006818441060DE
:10200000104602E0506000E0186039B102680B1A17
:10201000934203D10B681A4402604968416010BDC5
:1020200018000020FEF706FCFFF70BFDFFF770FB22
:102030003F4D3E48002428604FF41650C5E9010486
:102040000C20EC60C5E90440AC612846EC61FFF768
:1020500097F9A5F19400374901603749C0E90114A7
:102060004FF48041C0E9034144618461C46104626A
:10207000FEF7B4F9FFF79AFBFFF70EFC2868C1687A
:1020800041F02001C1606FF0FE042C4E65103078E5
:102090004E2821D06E2821D0532821D0732822D059
:1020A000452823D0652824D0572825D0772825D047
:1020B000412825D0612825D0422826D0622826D064
:1020C000432826D0632826D0442826D0642827D049
:1020D0004F28DCD1002116E0FF2108E0802109E033
:1020E000204621461EE0284629461BE02146FF20C7
:1020F00018E02946802015E0FF210FE0802110E044
:10210000FF2100E0802100200CE00021EFE700210A
:10211000F0E72146F7E72946F5E70021204601E0F0
:102120000021284600F042F8B1E7000000380140E5
:10213000B404002000540040801A0600060000206D
:10214000F0B50B30154D20F007010024144A0FE0C4
:1021500003688B420BD38B4205D95E1A431847683C
:10216000C3E9006700E04368136002C004E0021D99
:1021700010680028ECD12046002802D1286808B158
:102180000020F0BD064A07481060074A121A22F0E4
:102190000702C0E9002401202860D7E71C000020C6
:1021A00018000020FC040020F80600202DE9F04172
:1021B00005466FF0FE008EB00C46854201DA0546FA
:1021C00002E0FF2D00DDFF25844201DA044602E033
:1021D000FF2C00DDFF24002660270596029603965B
:1021E0000496324669461E4800970696FEF7BDFFE4
:1021F00000211B48FFF722F8DFF868804FF4804188
:10220000002D03DB4FF00002404604E04FF00102D6
:10221000404605F59675FEF7D5F80B960C9609968F
:102220000A96042207A90E4807970D960195FEF716
:102230009CFF04210A48FFF701F84FF40041002CED
:1022400003DB4FF00002404604E04FF0010240463D
:1022500004F59674FEF7B6F808940EB0BDE8F08168
:1022600074040020000C01400148401EFDD170475D
:1022700090D003001CB502238DF804100A210091B0
:102280008DF80520014601AA0148FEF7F7F91CBDAB
:10229000200400202DE9F84380461C4616460F46D0
:1022A000581CFFF74DFF05460770012005E0311867
:1022B00011F8011C2954401CC0B2A042F7D90A20D1
:1022C000009023462A4641460348FEF7D7F92846A0
:1022D000BDE8F843FFF77EBE2004002000000000A8
:1022E00000000000010203040607080900000000C6
:1022F0000102030414230008000000202000000055
:10230000B61F00083423000820000020D80A00006F
:10231000C61F0008000000000000000001000000CF
:10232000100000000000000000A24A0400000000AD
:0423300000000000A9
:04000005080000ED02
:00000001FF
